:020000040800F2
:1000000000000220CD0D0008DD0C0008E50C000802
:10001000ED0C0008F50C0008FD0C000800000000C5
:1000200000000000000000000000000091B3000884
:10003000050D000800000000E1B500082D8B000848
:100040001D0E00081D0E00081D0E00081D0E0008E4
:100050001D0E00081D0E00081D0E00081D0E0008D4
:100060001D0E00081D0E00081D0E00081D0E0008C4
:100070001D0E00081D0E00081D0E00081D0E0008B4
:100080001D0E00081D0E00081D0E00081D0E0008A4
:100090001D0E00081D0E00081D0E00081D0E000894
:1000A0001D0E0008150D00081D0E00081D0E00088D
:1000B0001D0E00081D0E00081D0E00081D0E000874
:1000C0001D0E00081D0E00081D0E00081D0E000864
:1000D0001D0E00081D0E00081D0E00081D0E000854
:1000E0001D0E00081D0E00081D0E00081D0E000844
:1000F0001D0E00081D0E00081D0E00081D0E000834
:100100001D0E00081D0E00081D0E00081D0E000823
:100110001D0E00081D0E00081D0E00081D0E000813
:100120001D0E00081D0E00081D0E00081D0E000803
:100130001D0E00081D0E00081D0E00081D0E0008F3
:100140001D0E00081D0E00081D0E0008290D0008D8
:100150001D0E00081D0E00081D0E00081D0E0008D3
:100160001D0E00081D0E00081D0E00081D0E0008C3
:100170001D0E00081D0E00081D0E000800000000E6
:080180001D0E00081D0E000811
:1001900010B5054C237833B9044B13B10448AFF3C1
:1001A00000800123237010BD8000002000000000AB
:1001B0009CC4000808B5034B1BB103490348AFF3C7
:1001C000008008BD00000000840000209CC40008DE
:1001D00053B94AB9002908BF00281CBF4FF0FF31AE
:1001E0004FF0FF3000F088B9ADF1080C6DE904CE96
:1001F00000F006F8DDF804E0DDE9022304B0704702
:100200002DE9F047089D0F4604468C46002B48D147
:100210008A42164661D9B2FA82F34BB1C3F1200289
:1002200001FA03FC20FA02F29E4042EA0C0C9C40C8
:100230004FEA164EB7B2BCFBFEF1220C0EFB11CCFE
:1002400042EA0C4201FB07F0904209D9B21801F1D1
:10025000FF3C80F0EE80904240F2EB800239324465
:10026000121AA4B2B2FBFEF00EFB102244EA0244C2
:1002700000FB07F7A74209D9341900F1FF3280F0DB
:10028000DA80A74240F2D7803444023840EA014085
:10029000E41B00211DB1DC400023C5E90043BDE89B
:1002A000F0878B4206D90DB1C5E90001002108464F
:1002B000BDE8F087B3FA83F1002948D1BB4202D3ED
:1002C000824200F20781841A67EB03020120944600
:1002D000002DE4D0C5E9004CE1E7002A00F092804F
:1002E000B2FA82F3002B40F0A8808A1A4FEA164E29
:1002F0001FFA86FC0121200CB2FBFEF70EFB172231
:1003000040EA02420CFB07F0904207D9B21807F10D
:10031000FF3802D2904200F2E2804746121AA4B29D
:10032000B2FBFEF00EFB102244EA02440CFB00FC80
:10033000A44507D9341900F1FF3202D2A44500F2D6
:10034000CB801046A4EB0C0440EA0740A2E7C1F1C1
:1003500020068B4022FA06FC4CEA030C07FA01F453
:1003600020FA06F3F7404FEA1C49234300FA01F84C
:100370001FFA8CFEB7FBF9F01C0C09FB107744EA5E
:10038000074400FB0EF7A74202FA01F20AD91CEB60
:10039000040400F1FF3A80F09B80A74240F298806D
:1003A00002386444E41B9FB2B4FBF9F309FB134425
:1003B00047EA044403FB0EFEA64509D91CEB0404DE
:1003C00003F1FF3780F08280A6457FD9023B644469
:1003D00043EA0040A4EB0E04A0FB02E7BC427346D4
:1003E000B94663D360D05DB1B8EB030264EB090496
:1003F00004FA06F622FA01F31E43CC40C5E9006474
:1004000000214CE76208480842EAC1710B0C43EA3C
:1004100000438AB242EA0342B3FBF6F1E407B44672
:100420003746B6461F23B0FBF6F0D21B41EA004127
:1004300061E7614614E7104628E7C3F1200120FA7E
:1004400001F29E4027FA01F19F403A434FEA164ECF
:100450001FFA86FCB1FBFEF70EFB1710110C41EAE8
:10046000004107FB0CF8884504FA03F43AD97118E7
:1004700007F1FF3001D288451FD8A1EB0801B1FB7D
:10048000FEF808FB0CF70EFB181192B242EA01428B
:10049000BA422FD2B21808F1FF31C6D2BA42C4D242
:1004A000A8F102013244C0E7F0459CD2BEEB020342
:1004B00067EB0C070138B94695E7A6EB08084144FD
:1004C000B81EB1FBFEF808FB0CF7DCE73B467FE704
:1004D000504667E70846FBE63444023832E7023FFD
:1004E00032441BE7A1EB08013846B1FBFEF808FBDC
:1004F0000CF7C8E7414698E7704700BF80B500AFEA
:1005000000F08EFC00F01CF800F018F900F082F802
:1005100000F0AEF800F0DCF808F022FB054A0021FC
:10052000054808F067FB0346044A136008F03CFBEB
:1005300000BFFDE7E8C40008390900089001002069
:1005400080B594B000AF07F1200330220021184697
:100550000BF0AAFE07F10C0300221A605A609A60A1
:10056000DA601A610023BB60284B1B6C274A43F0FA
:1005700080531364254B1B6C03F08053BB60BB6836
:1005800000237B60224B1B68214A43F480431360A5
:100590001F4B1B6803F480437B607B6801233B6235
:1005A0004FF480337B620223BB634FF48003FB6311
:1005B00008233B644FF4A8737B640223BB640723C6
:1005C000FB6407F12003184603F01CFE0346002BD2
:1005D00001D000F0CDF90F23FB6002233B61002323
:1005E0007B614FF4A053BB614FF48053FB6107F173
:1005F0000C030521184604F07DF80346002B01D0BA
:1006000000F0B6F900BF5037BD4680BD003802404B
:100610000070004080B500AF124B134A1A60114BB6
:10062000124A5A600F4B00229A600E4B0022DA6089
:100630000C4B4FF480421A610A4B00225A61094B5D
:1006400000229A61074B0022DA61064B00221A62EF
:10065000044802F0F3FF0346002B01D000F088F9B4
:1006600000BF80BD9C00002000540040A086010017
:1006700080B500AF134B144A1A60124B4FF400724E
:100680005A60104B00229A600E4B0022DA600D4B2C
:100690004FF400721A610B4B0C4A5A61094B00224D
:1006A0009A61084B0022DA61064B00221A62054863
:1006B00003F008F90346002B01D000F059F900BF00
:1006C00080BD00BFF0000020003C0040007701002A
:1006D00080B500AF174B184A1A60164B4FF4827260
:1006E0005A60144B00229A60124B0022DA60114BC0
:1006F00000221A610F4B00225A610E4B4FF4007218
:100700009A610C4B0022DA610A4B00221A62094BF3
:1007100000225A62074B00229A62064B0A22DA62D2
:10072000044804F07BFB0346002B01D000F020F9C5
:1007300000BF80BD380100200030014080B58CB082
:1007400000AF07F11C0300221A605A609A60DA6059
:100750001A610023BB61724B1B6B714A43F010039B
:1007600013636F4B1B6B03F01003BB61BB6900236A
:100770007B616B4B1B6B6A4A43F004031363684B4A
:100780001B6B03F004037B617B6900233B61644BBB
:100790001B6B634A43F080031363614B1B6B03F0D5
:1007A00080033B613B690023FB605D4B1B6B5C4A34
:1007B00043F0010313635A4B1B6B03F00103FB600F
:1007C000FB680023BB60564B1B6B554A43F002038A
:1007D0001363534B1B6B03F00203BB60BB68002326
:1007E0007B604F4B1B6B4E4A43F0080313634C4B2B
:1007F0001B6B03F008037B607B68002208214948DB
:1008000000F0F2FD01220121474800F0EDFD002239
:100810004FF21001454800F0E7FD0823FB6101237A
:100820003B6200237B620023BB6207F11C03194675
:100830003C4800F03DFC0123FB6101233B620023A7
:100840007B620023BB6207F11C031946364800F0A7
:100850002FFC0823FB6102233B6200237B62002301
:10086000BB620523FB6207F11C0319462E4800F00A
:100870001FFC0123FB614FF490133B6200237B625A
:1008800007F11C0319462A4800F012FC0423FB61FF
:1008900000233B6200237B6207F11C0319462548B5
:1008A00000F006FC4FF48063FB6102233B620023EF
:1008B0007B620023BB620523FB6207F11C03194620
:1008C0001C4800F0F5FB4FF21003FB6101233B6273
:1008D00000237B620023BB6207F11C031946134807
:1008E00000F0E6FB2023FB6100233B6200237B62D8
:1008F00007F11C0319460D4800F0DAFB0223FB61E7
:100900004FF490133B6200237B6207F11C031946EE
:10091000044800F0CDFB00BF3037BD4680BD00BFAE
:10092000003802400010024000080240000C024063
:10093000000002400004024080B582B000AF786041
:100940000BF002F9012008F0E7F9FBE780B582B06F
:1009500000AF78607B681B68044A934201D100F0C5
:1009600081FA00BF0837BD4680BD00BF00000140CE
:1009700080B400AF72B600BF00BFFDE780B582B0A3
:1009800000AF00237B60124B5B6C114A43F4804341
:1009900053640F4B5B6C03F480437B607B680023E4
:1009A0003B600B4B1B6C0A4A43F080531364084BAB
:1009B0001B6C03F080533B603B6800220F216FF0FB
:1009C000010000F04BFB00BF0837BD4680BD00BFF3
:1009D0000038024080B58AB000AF786007F1140398
:1009E00000221A605A609A60DA601A617B681B689C
:1009F000194A93422CD100233B61184B1B6B174AB9
:100A000043F002031363154B1B6B03F002033B61BE
:100A10003B694FF410737B611223BB610123FB61BF
:100A200000233B6204237B6207F1140319460C4840
:100A300000F03EFB0023FB60084B1B6C074A43F4AD
:100A400000131364054B1B6C03F40013FB60FB687D
:100A500000BF2837BD4680BD00540040003802402A
:100A60000004024080B58EB000AF786007F1240327
:100A700000221A605A609A60DA601A6107F1140362
:100A800000221A605A609A60DA607B681B68314AFB
:100A900093425AD101237B61C023BB610223FB61D6
:100AA00007F11403184604F077F80346002B01D031
:100AB000FFF75EFF00233B61274B1B6C264A43F484
:100AC00000431364244B1B6C03F400433B613B69FC
:100AD0000023FB60204B1B6B1F4A43F00103136391
:100AE0001D4B1B6B03F00103FB60FB680023BB6025
:100AF000194B1B6B184A43F004031363164B1B6B13
:100B000003F00403BB60BB6810237B620223BB625B
:100B10000023FB6200233B6306237B6307F124036E
:100B200019460E4800F0C4FA4FF4A4537B62022326
:100B3000BB620023FB6200233B6306237B6307F158
:100B400024031946064800F0B3FA00BF3837BD4603
:100B500080BD00BF003C0040003802400000024061
:100B60000008024080B58AB000AF786007F1140336
:100B700000221A605A609A60DA601A617B681B680A
:100B8000194A93422BD100233B61184B5B6C174AE7
:100B900043F480535364154B5B6C03F480533B6107
:100BA0003B690023FB60114B1B6B104A43F00103B0
:100BB00013630E4B1B6B03F00103FB60FB68E02328
:100BC0007B610223BB610023FB6100233B620523A1
:100BD0007B6207F114031946054800F069FA00BF6B
:100BE0002837BD4680BD00BF0030014000380240BC
:100BF0000000024080B58CB000AF78600023BB627B
:100C000000237B620023BB602F4B5B6C2E4A43F0BA
:100C1000010353642C4B5B6C03F00103BB60BB68A6
:100C200007F10C0207F110031146184603F082FF8A
:100C300003F06CFF03465B00BB62BB6A234AA2FB66
:100C400003239B0C013B7B62214B224A1A60204B01
:100C500040F2E732DA601E4A7B6A53601C4B002286
:100C60001A611B4B00229A60194B00229A611848A6
:100C700004F05DF9034687F82F3097F82F30002BEA
:100C80001BD1134804F0ACF9034687F82F3097F8CE
:100C90002F30002B11D1192000F0FCF97B680F2BAD
:100CA00008D800227968192000F0D8F90A4A7B6830
:100CB000136002E0012387F82F3097F82F30184691
:100CC0003037BD4680BD00BF0038024083DE1B4385
:100CD00094010020000001400400002080B400AF17
:100CE00000BFFDE780B400AF00BFFDE780B400AFF8
:100CF00000BFFDE780B400AF00BFFDE780B400AFE8
:100D000000BFFDE780B400AF00BFBD465DF8047BC7
:100D10007047000080B500AF024804F0D1F900BF71
:100D200080BD00BF9401002080B500AF024800F0F4
:100D300031FE00BF80BD00BFD84F002080B586B017
:100D400000AF7860144A154BD31A7B617B693B6115
:100D5000134B1B68002B02D1114B124A1A60104B27
:100D60001A687B6813443A699A4207D20BF012FB67
:100D700003460C221A604FF0FF3309E0084B1B6852
:100D8000FB60074B1A687B681344054A1360FB68D5
:100D900018461837BD4680BD000002200004000040
:100DA000DC0100200055002080B400AF064BD3F8D2
:100DB0008830054A43F47003C2F8883000BFBD464E
:100DC0005DF8047B704700BF00ED00E0DFF834D031
:100DD000FFF7EAFF0C480D490D4A002302E0D45802
:100DE000C4500433C4188C42F9D30A4A0A4C002375
:100DF00001E013600432A242FBD30BF0D1FAFFF7FB
:100E00007DFB7047000002200000002080000020D1
:100E100034C500088000002000550020FEE70000D7
:100E200080B500AF0E4B1B680D4A43F4007313608E
:100E30000B4B1B680A4A43F480631360084B1B6822
:100E4000074A43F480731360032000F0FCF80F207E
:100E5000FFF7D0FEFFF792FD0023184680BD00BFCC
:100E6000003C024080B400AF064B1B781A46064B8C
:100E70001B681344044A136000BFBD465DF8047B41
:100E8000704700BF08000020E001002080B400AFE0
:100E9000034B1B681846BD465DF8047B704700BFD6
:100EA000E001002080B584B000AF7860FFF7EEFF6E
:100EB000B8607B68FB60FB68B3F1FF3F05D00A4B6D
:100EC0001B781A46FB681344FB6000BFFFF7DEFF88
:100ED0000246BB68D31AFA689A42F7D800BF00BF2F
:100EE0001037BD4680BD00BF0800002080B485B02B
:100EF00000AF78607B6803F00703FB600C4BDB6896
:100F0000BB60BA684FF6FF031340BB60FB681A0270
:100F1000BB68134343F0BF6343F40033BB60044A30
:100F2000BB68D36000BF1437BD465DF8047B7047D3
:100F300000ED00E080B400AF044BDB681B0A03F057
:100F400007031846BD465DF8047B704700ED00E0DE
:100F500080B483B000AF0346FB7197F90730002BD4
:100F60000BDBFB7903F01F02074997F907305B0998
:100F7000012000FA02F241F8232000BF0C37BD46E1
:100F80005DF8047B704700BF00E100E080B483B0EF
:100F900000AF03463960FB7197F90730002B0ADB7D
:100FA0003B68DAB20C4997F907301201D2B20B4410
:100FB00083F800230AE03B68DAB20849FB7903F0C2
:100FC0000F03043B1201D2B20B441A7600BF0C3758
:100FD000BD465DF8047B704700E100E000ED00E0F5
:100FE00080B489B000AFF860B9607A60FB6803F044
:100FF0000703FB61FB69C3F10703042B28BF04232C
:10100000BB61FB690433062B02D9FB69033B00E09B
:1010100000237B614FF0FF32BB6902FA03F3DA432E
:10102000BB681A407B699A404FF0FF317B6901FA37
:1010300003F3D9437B680B40134318462437BD465E
:101040005DF8047B704780B582B000AF7860786847
:10105000FFF74CFF00BF0837BD4680BD80B586B0A6
:1010600000AF0346B9607A60FB7300237B61FFF732
:1010700061FF78617A68B9687869FFF7B1FF024665
:1010800097F90F3011461846FFF780FF00BF183759
:10109000BD4680BD80B582B000AF0346FB7197F9B5
:1010A00007301846FFF754FF00BF0837BD4680BD24
:1010B00080B489B000AF7860396000237B61002381
:1010C0003B610023BB610023FB616BE10122FB69F3
:1010D00002FA03F37B613B681B687A6913403B614A
:1010E0003A697B699A4240F05A813B685B6803F039
:1010F0000303012B05D03B685B6803F00303022B5D
:1011000030D17B689B68BB61FB695B00032202FAFC
:1011100003F3DB43BA691340BB613B68DA68FB69E0
:101120005B0002FA03F3BA691343BB617B68BA69D7
:101130009A607B685B68BB610122FB6902FA03F37A
:10114000DB43BA691340BB613B685B681B0903F072
:101150000102FB6902FA03F3BA691343BB617B68BE
:10116000BA695A603B685B6803F00303032B17D02E
:101170007B68DB68BB61FB695B00032202FA03F357
:10118000DB43BA691340BB613B689A68FB695B004B
:1011900002FA03F3BA691343BB617B68BA69DA6088
:1011A0003B685B6803F00303022B23D1FB69DA0879
:1011B0007B68083253F82230BB61FB6903F00703F8
:1011C0009B000F2202FA03F3DB43BA691340BB61B1
:1011D0003B681A69FB6903F007039B0002FA03F3FB
:1011E000BA691343BB61FB69DA087B680832B969E5
:1011F00043F822107B681B68BB61FB695B0003221C
:1012000002FA03F3DB43BA691340BB613B685B68D6
:1012100003F00302FB695B0002FA03F3BA691343AC
:10122000BB617B68BA691A603B685B6803F4403352
:10123000002B00F0B4800023FB60604B5B6C5F4AC6
:1012400043F4804353645D4B5B6C03F48043FB6069
:10125000FB685B4AFB699B08023352F82330BB6191
:10126000FB6903F003039B000F2202FA03F3DB4345
:10127000BA691340BB617B68524A93422BD07B68AA
:10128000514A934225D07B68504A93421FD07B68D5
:101290004F4A934219D07B684E4A934213D07B68E1
:1012A0004D4A93420DD07B684C4A934207D07B68ED
:1012B0004B4A934201D107230EE008230CE006239A
:1012C0000AE0052308E0042306E0032304E00223E8
:1012D00002E0012300E00023FA6902F00302920019
:1012E0009340BA691343BB613549FB699B080233DC
:1012F000BA6941F823203B4B9B68BB613B69DB43E8
:10130000BA691340BB613B685B6803F48013002B30
:1013100003D0BA693B691343BB61324ABB6993602E
:10132000304BDB68BB613B69DB43BA691340BB618F
:101330003B685B6803F40013002B03D0BA693B6978
:101340001343BB61274ABB69D360264B5B68BB6113
:101350003B69DB43BA691340BB613B685B6803F4DC
:101360000033002B03D0BA693B691343BB611D4AAC
:10137000BB6953601B4B1B68BB613B69DB43BA69AC
:101380001340BB613B685B6803F48033002B03D0E0
:10139000BA693B691343BB61124ABB691360FB69BD
:1013A0000133FB61FB690F2B7FF690AE00BF00BFDE
:1013B0002437BD465DF8047B704700BF003802400B
:1013C00000380140000002400004024000080240D2
:1013D000000C0240001002400014024000180240BD
:1013E000001C0240003C014080B483B000AF786034
:1013F0000B467B8013467B707B78002B03D07A886A
:101400007B689A6103E07B881A047B689A6100BF5D
:101410000C37BD465DF8047B704780B586B002AFDF
:1014200078607B68002B01D1012359E07B681B6841
:10143000FB607B6893F8D533DBB2002B06D17B6869
:10144000002283F8D42378680AF0D2FB7B68032259
:1014500083F8D523FB68B3F1A04F02D17B6800224B
:101460009A717B681B68184604F071F87B681868ED
:101470007B681A7C8DF8002004330ECB03F0F2FF5A
:101480000346002B05D07B68022283F8D523012375
:1014900026E07B681B680121184604F069F80346C2
:1014A000002B05D07B68022283F8D523012317E0A7
:1014B0007B6818687B681A7C8DF8002004330ECB9B
:1014C00004F012FA0346002B05D07B68022283F851
:1014D000D523012304E07B68012283F8D523002370
:1014E00018461037BD4680BD90B58BB004AF78600C
:1014F000084611461A460346FB700B46BB7013465E
:101500007B703B8E7B617B6893F8D433012B01D1D8
:1015100002239DE07B68012283F8D423FA7879685E
:1015200013461B019B1A9B000B44193300221A70AF
:10153000FA78796813461B019B1A9B000B441433FD
:101540007A781A70FA78796813461B019B1A9B0007
:101550000B441533FA781A70FA78796813461B0130
:101560009B1A9B000B44263397F82C201A70FA78AC
:10157000BB7803F07F03D8B2796813461B019B1A2E
:101580009B000B44163302461A70FB7819467868A4
:1015900000F0A4FB97F90230002B0ADAFA78796898
:1015A00013461B019B1A9B000B44173301221A7030
:1015B00009E0FA78796813461B019B1A9B000B44DB
:1015C000173300221A707B681B68184604F0F0FA83
:1015D000386197F82C30012B0BD197F82830012B6C
:1015E00007D13B69002B04D17B69BC2B01D9BC23FB
:1015F0007B61FA78796813461B019B1A9B000B44A8
:10160000183397F828201A70FA787B6998B27968AD
:1016100013461B019B1A9B000B44283302461A8079
:101620007B6818687B699BB27C78BA78F9780293FA
:1016300097F82C30019397F828300093234604F054
:10164000DFFA0346FB737B68002283F8D423FB7B1D
:1016500018461C37BD4690BD80B582B000AF78609B
:10166000084611461A460346FB700B46BB701346EC
:101670007B70FA78796813461B019B1A9B000B4418
:101680001733BA781A70FA78796813461B019B1AD7
:101690009B000B4426337A781A703B7C002B14D1C4
:1016A000FA78796813461B019B1A9B000B442A3376
:1016B00003221A70FA78796813461B019B1A9B0063
:1016C0000B4419333A7F1A7009E0FA7879681346A7
:1016D0001B019B1A9B000B442A3302221A707B7851
:1016E000032B00F2028101A252F823F0FD1600083C
:1016F000D5180008C11700084B1800083B7C012BC7
:1017000040F0F580BB78002B2DD13B8B002B09D10D
:10171000FA78796813461B019B1A9B000B443D33F2
:1017200001221A70FA78796813461B019B1A9B00F4
:101730000B443D331B78002B0AD1FA7879681346A5
:101740001B019B1A9B000B442A3300221A70CEE027
:10175000FA78796813461B019B1A9B000B442A33C5
:1017600002221A70C3E0FA78796813461B019B1AAB
:101770009B000B441A331B78012B40F0B880FA7899
:10178000796813461B019B1A9B000B443C331B7862
:10179000002B0AD1FA78796813461B019B1A9B002B
:1017A0000B442A3300221A70A1E0FA7879681346B4
:1017B0001B019B1A9B000B442A3302221A7096E0ED
:1017C000BB78002B20D1FA78796813461B019B1A4D
:1017D0009B000B443D331B78002B0AD1FA787968C3
:1017E00013461B019B1A9B000B442A3300221A70DC
:1017F0007EE0FA78796813461B019B1A9B000B4424
:101800002A3302221A7073E0FA78796813461B01B2
:101810009B1A9B000B443C331B78002B0AD1FA78AF
:10182000796813461B019B1A9B000B442A33002244
:101830001A705DE0FA78796813461B019B1A9B00C9
:101840000B442A3302221A7052E0BB78002B20D1BD
:10185000FA78796813461B019B1A9B000B443D33B1
:101860001B78002B0AD1FA78796813461B019B1A62
:101870009B000B442A3300221A7039E0FA78796809
:1018800013461B019B1A9B000B442A3302221A7039
:101890002EE0FA78796813461B019B1A9B000B44D3
:1018A0003C331B78002B0AD1FA78796813461B0168
:1018B0009B1A9B000B442A3300221A7018E0FA7816
:1018C000796813461B019B1A9B000B442A330222A2
:1018D0001A700DE0FA78796813461B019B1A9B0079
:1018E0000B442A3300221A7002E000BF00E000BF60
:1018F000FA78796813461B019B1A9B000B442C3322
:101900007A691A60FA78398B786813461B019B1A3A
:101910009B00034434331960FA78796813461B013D
:101920009B1A9B000B444C3300221A70FA7879689A
:1019300013461B019B1A9B000B44383300221A608C
:10194000FA78796813461B019B1A9B000B441533E8
:10195000FA781A70FA78796813461B019B1A9B0073
:101960000B444D3300221A707B681868FA781346CE
:101970001B019B1A9B0010337A681344191D7B6866
:101980009B791A4604F068FA034618460837BD46A4
:1019900080BD00BF80B586B000AF78607B681B68F3
:1019A0003B613B69FB607B681B68184603F056FF90
:1019B0000346012B40F0FB807B681B68184603F050
:1019C00019FF0346002B00F0F1807B681B68184666
:1019D00003F010FF034603F40013B3F5001F04D116
:1019E0007B681B684FF400125A617B681B681846BD
:1019F00003F000FF034603F48013B3F5801F04D106
:101A00007B681B684FF480125A617B681B6818461C
:101A100003F0F0FE034603F08063B3F1806F04D15E
:101A20007B681B684FF080625A617B681B681846B0
:101A300003F0E0FE034603F00203022B03D17B68B0
:101A40001B6802225A617B681B68184603F0D2FEAD
:101A5000034603F00053B3F1005F20D17B681B689D
:101A60004FF000525A61FB6803F588631B6803F06E
:101A70000103002B13D11021386903F0C5FD38692B
:101A800003F0F4FD7B685B7A022B05D17B681B6851
:101A90000121184603F0ECFF78680AF027F97B680B
:101AA0001B68184603F0A6FE034603F08073B3F1EB
:101AB000807F02D1786801F04DFD7B681B68184675
:101AC00003F098FE034603F00803082B06D178685C
:101AD0000AF0F0F87B681B6808225A617B681B6873
:101AE000184603F087FE034603F00073B3F1007F4E
:101AF00039D17B681B68184604F028FCB8600023C5
:101B00007B6125E07B6903F00F03BA6822FA03F3D7
:101B100003F00103002B18D07B695A01FB681344C2
:101B200003F5A0631B6803F40043B3F5004F06D12F
:101B30007B69DBB21946786800F005F905E07B693E
:101B4000DBB21946786800F067FF7B6901337B617F
:101B50007B685B791A467B699342D3D37B681B68A9
:101B60004FF000725A617B681B68184603F042FE12
:101B7000034603F01003102B01D1012300E00023E2
:101B8000002B14D07B681B689A697B681B6822F065
:101B900010029A61786801F0FEFB7B681B689A6905
:101BA0007B681B6842F010029A6100E000BF1837A2
:101BB000BD4680BD80B582B000AF78607B6893F889
:101BC000D433012B01D1022313E07B68012283F877
:101BD000D4237B681B680121184603F0B0FF7B68A3
:101BE0001B68184603F0A2FC7B68002283F8D4230C
:101BF000002318460837BD4680BD80B582B000AFCF
:101C000078607B6893F8D433012B01D102230DE077
:101C10007B68012283F8D4237B681B68184604F094
:101C200003FD7B68002283F8D4230023184608377D
:101C3000BD4680BD80B582B000AF78607B681B6810
:101C4000184603F052FF034618460837BD4680BDCC
:101C500080B483B000AF78600B46FB70FA78796887
:101C600013461B019B1A9B000B444C331B781846F0
:101C70000C37BD465DF8047B704780B483B000AF7D
:101C800078600B46FB70FA78796813461B019B1A43
:101C90009B000B4438331B6818460C37BD465DF873
:101CA000047B704780B582B000AF78607B681B68AA
:101CB000184603F094FF034618460837BD4680BD1A
:101CC00080B582B000AF78607B681B68184603F06F
:101CD0006FFF034618460837BD4680BD80B483B009
:101CE00000AF78600B46FB70FA78796813461B01E9
:101CF0009B1A9B000B441A3300221A70FA787968F9
:101D000013461B019B1A9B000B441B3300221A70C5
:101D1000FA78796813461B019B1A9B000B44253304
:101D200000221A70FA78796813461B019B1A9B00EF
:101D30000B44243300221A70002318460C37BD468A
:101D40005DF8047B704780B586B000AF78600B46C5
:101D5000FB707B681B687B617B693B617B681B68F0
:101D6000FA781146184603F058FD034603F00403C1
:101D7000042B1AD1FB785A013B69134403F5A06385
:101D80001A4604239360FA78796813461B019B1A5C
:101D90009B000B444D3307221A707B681B68FA784E
:101DA0001146184604F0E3FA9EE07B681B68FA7857
:101DB0001146184603F031FD034603F48073B3F572
:101DC000807F1BD1FB785A013B69134403F5A06364
:101DD0001A464FF480739360FA78796813461B01B2
:101DE0009B1A9B000B444D3308221A707B681B68BA
:101DF000FA781146184604F0BAFA75E07B681B6859
:101E0000FA781146184603F008FD034603F008036C
:101E1000082B1AD1FB785A013B69134403F5A063E0
:101E20001A4608239360FA78796813461B019B1AB7
:101E30009B000B444D3306221A707B681B68FA78AE
:101E40001146184604F093FA4EE07B681B68FA7856
:101E50001146184603F0E1FC034603F48063B3F532
:101E6000806F1BD1FB785A013B69134403F5A063D3
:101E70001A464FF480639360FA78796813461B0121
:101E80009B1A9B000B444D3309221A707B681B6818
:101E9000FA781146184604F06AFA25E07B681B6858
:101EA000FA781146184603F0B8FC034603F08003A5
:101EB000802B19D1FB785A013B69134403F5A063C9
:101EC0001A4680239360FA78796813461B019B1A9F
:101ED0009B000B444D3307221A707B681B68FA780D
:101EE0001146184604F043FA7B681B68FA781146DD
:101EF000184603F092FC034603F40073B3F5007F29
:101F000012D17B681B68FA781146184604F02FFA44
:101F1000FB785A013B69134403F5A0631A464FF45A
:101F20000073936000F075BD7B681B68FA781146FA
:101F3000184603F072FC034603F00103012B40F046
:101F40002881FB785A013B69134403F5A0631A46C4
:101F500020239360FA78796813461B019B1A9B0033
:101F60000B441B331B78012B19D1FA78796813467F
:101F70001B019B1A9B000B441B3300221A70FB7839
:101F80005A013B69134403F5A0635B68FA78510179
:101F90003A690A4402F5A06223F4803353607B68F7
:101FA0009B79002B1BD0FA78796813461B019B1A8A
:101FB0009B000B4430331968FB785A013B6913448A
:101FC00003F5A0631B69C3F31203FA78C91A786892
:101FD00013461B019B1A9B00034438331960FA789F
:101FE000796813461B019B1A9B000B444D33012259
:101FF0001A70FA78796813461B019B1A9B000B44F0
:10200000443300221A60FB785A013B69134403F5FC
:10201000A0631A4601239360FA78796813461B017E
:102020009B1A9B000B4426331B78002B0AD0FA78AE
:10203000796813461B019B1A9B000B4426331B78BF
:10204000022B10D17B681B68FA781146184604F001
:102050008EF9FB785A013B69134403F5A0631A46D5
:10206000102393603DE0FA78796813461B019B1AB0
:102070009B000B4426331B78032B0AD0FA7879682F
:1020800013461B019B1A9B000B4426331B78012B24
:1020900027D1FB785A013B69134403F5A0631B6801
:1020A000FA7851013A690A4402F5A06243F00053FC
:1020B0001360FA78796813461B019B1A9B000B4446
:1020C0004C3301221A70FA78796813461B019B1A67
:1020D0009B000B444C331A78FB781946786809F05A
:1020E00013FE7B689B79012B3BD1FA787968134604
:1020F0001B019B1A9B000B4438331968FA787868E7
:1021000013461B019B1A9B00034428331B880B4476
:10211000591EFA78786813461B019B1A9B000344EA
:1021200028331B88B1FBF3F303F00103002B00F00D
:102130007084FA78796813461B019B1A9B000B4444
:102140003C331B78FA7883F00103D8B279681346E0
:102150001B019B1A9B000B443C3302461A7000F093
:1021600058BCFA78796813461B019B1A9B000B44F4
:102170003C331B78FA7883F00103D8B279681346B0
:102180001B019B1A9B000B443C3302461A7000F063
:1021900040BC7B681B68FA781146184603F03DFB8B
:1021A000034603F02003202B31D1FB785A013B6911
:1021B000134403F5A0631A4620239360FA787968E4
:1021C00013461B019B1A9B000B441A331B78012BEF
:1021D00040F01F84FA78796813461B019B1A9B0014
:1021E0000B441B3301221A70FA78796813461B01DD
:1021F0009B1A9B000B444D3303221A707B681B68AB
:10220000FA781146184604F0B2F800F002BC7B6878
:102210001B68FA781146184603F0FFFA034603F0EC
:102220000203022B40F00583FB785A013B691344FB
:1022300003F5A0631A4602239360FA78796813467F
:102240001B019B1A9B000B444D331B78012B14D1AF
:10225000FA78796813461B019B1A9B000B444D3397
:1022600002221A70FA78796813461B019B1A9B00A8
:102270000B444C3301221A70CCE2FA787968134689
:102280001B019B1A9B000B444D331B78062B14D16A
:10229000FA78796813461B019B1A9B000B444D3357
:1022A00002221A70FA78796813461B019B1A9B0068
:1022B0000B444C3305221A70ACE2FA787968134665
:1022C0001B019B1A9B000B444D331B78072B0BD033
:1022D000FA78796813461B019B1A9B000B444D3317
:1022E0001B78092B40F0A680FA78796813461B0109
:1022F0009B1A9B000B444D3302221A70FA787968BE
:1023000013461B019B1A9B000B4444331B68591C4A
:10231000786813461B019B1A9B00034444331960E1
:10232000FA78796813461B019B1A9B000B444433CF
:102330001B68022B43D9FA78796813461B019B1A54
:102340009B000B44443300221A60FA7879681346E4
:102350001B019B1A9B000B441A331B78012B23D1C2
:10236000FA78796813461B019B1A9B000B441B33B8
:1023700000221A70FA78796813461B019B1A9B0099
:102380000B441C3300221A70FB785A013B6913443A
:1023900003F5A0635B68FA7851013A690A4402F5D3
:1023A000A06223F480335360FA78796813461B01E6
:1023B0009B1A9B000B444C3304221A7029E2FA78D2
:1023C000796813461B019B1A9B000B444C33022275
:1023D0001A70FA78796813461B019B1A9B000B440C
:1023E00026331B78002B0BD0FA78796813461B0133
:1023F0009B1A9B000B4426331B78022B40F009826A
:10240000FB785A013B69134403F5A0631B68FB602A
:10241000FB6823F08043FB60FB6843F00043FB60F4
:10242000FB785A013B69134403F5A0631A46FB6825
:102430001360EEE1FA78796813461B019B1A9B0042
:102440000B444D331B78052B40F0C880FA7879682F
:1024500013461B019B1A9B000B444D3302221A703A
:10246000FA78796813461B019B1A9B000B441B33B7
:102470001B78012B40F0CE81FA78796813461B0156
:102480009B1A9B000B4426331B78032B6BD1FA78E5
:10249000796813461B019B1A9B000B4448331B6849
:1024A000591C786813461B019B1A9B000344483350
:1024B0001960FA78796813461B019B1A9B000B443C
:1024C00048331B68022B43D9FA78796813461B01FD
:1024D0009B1A9B000B44483300221A60FA787968F3
:1024E00013461B019B1A9B000B441B3300221A70DE
:1024F000FA78796813461B019B1A9B000B444433FE
:102500001B68022B09D8FA78796813461B019B1ABD
:102510009B000B441C3301221A70FB785A013B6963
:10252000134403F5A0635B68FA7851013A690A44E1
:1025300002F5A06223F480335360FA787968134679
:102540001B019B1A9B000B444C3304221A7014E0AD
:10255000FA78796813461B019B1A9B000B444C3395
:1025600002221A7009E0FA78796813461B019B1A57
:102570009B000B444C3302221A70FA787968134698
:102580001B019B1A9B000B4426331B78002B0BD09E
:10259000FA78796813461B019B1A9B000B4426337B
:1025A0001B78022B40F03681FB785A013B691344BB
:1025B00003F5A0631B68FB60FB6823F08043FB60AE
:1025C000FB6843F00043FB60FB785A013B6913440E
:1025D00003F5A0631A46FB6813601BE1FA7879687B
:1025E00013461B019B1A9B000B444D331B78032B96
:1025F00040F08180FA78796813461B019B1A9B0092
:102600000B444D3302221A70FA78796813461B0185
:102610009B1A9B000B441B331B78012B40F0FA8064
:10262000FA78796813461B019B1A9B000B444C33C4
:1026300002221A70FB785A013B69134403F5A06328
:102640005B68FA7851013A690A4402F5A06243F4E2
:1026500080335360FB785A013B69134403F5A06350
:10266000DB68FA7851013A690A4402F5A06243F046
:102670004003D360FB785A013B69134403F5A06320
:10268000DB68FA7851013A690A4402F5A06223F046
:102690002003D360FA78796813461B019B1A9B00CC
:1026A0000B4426331B78002B0BD0FA78796813463D
:1026B0001B019B1A9B000B4426331B78022B40F016
:1026C000A980FB785A013B69134403F5A0631B689A
:1026D000FB60FB6823F08043FB60FB6843F0004332
:1026E000FB60FB785A013B69134403F5A0631A466B
:1026F000FB6813608EE0FA78796813461B019B1A19
:102700009B000B444D331B78042B43D1FA78796836
:1027100013461B019B1A9B000B444D3302221A7077
:10272000FA78796813461B019B1A9B000B444C33C3
:1027300002221A70FA78796813461B019B1A9B00D3
:102740000B4426331B78002B0AD0FA78796813469D
:102750001B019B1A9B000B4426331B78022B59D17B
:10276000FB785A013B69134403F5A0631B68FB60C7
:10277000FB6823F08043FB60FB6843F00043FB6091
:10278000FB785A013B69134403F5A0631A46FB68C2
:1027900013603FE0FA78796813461B019B1A9B008F
:1027A0000B444D331B78082B26D1FA7879681346F1
:1027B0001B019B1A9B000B444D3302221A70FA78BE
:1027C000796813461B019B1A9B000B4444331B681A
:1027D000591C786813461B019B1A9B000344443321
:1027E0001960FA78796813461B019B1A9B000B4409
:1027F0004C3304221A700DE0FA78796813461B01F5
:102800009B1A9B000B444D331B78022B00F0008178
:1028100000E000BFFA78796813461B019B1A9B0001
:102820000B444C331A78FB781946786809F06CFA37
:10283000EFE07B681B68FA781146184602F0EDFF5E
:10284000034603F04003402B2FD1FB785A013B692C
:10285000134403F5A0631A4640239360FA7879681D
:1028600013461B019B1A9B000B444D3305221A7023
:10287000FA78796813461B019B1A9B000B441A33A4
:102880001B78002B09D1FA78796813461B019B1A33
:102890009B000B44443300221A607B681B68FA7863
:1028A0001146184603F063FDB3E07B681B68FA78B5
:1028B0001146184602F0B1FF034603F01003102B37
:1028C00040F0A780FA78796813461B019B1A9B0099
:1028D0000B4426331B78032B1BD1FA7879681346F7
:1028E0001B019B1A9B000B44443300221A60FA78A8
:1028F000796813461B019B1A9B000B444D3304223D
:102900001A707B681B68FA781146184603F02FFD91
:102910003FE0FA78796813461B019B1A9B000B4431
:1029200026331B78002B0AD0FA78796813461B01EE
:102930009B1A9B000B4426331B78022B29D1FA7873
:10294000796813461B019B1A9B000B4444330022F9
:102950001A607B689B79002B0AD0FA787968134655
:102960001B019B1A9B000B441B331B78012B10D1BE
:10297000FA78796813461B019B1A9B000B444D3370
:1029800004221A707B681B68FA781146184603F017
:10299000EEFCFA78796813461B019B1A9B000B44E6
:1029A0001B331B78012B29D1FA78796813461B0158
:1029B0009B1A9B000B441B3300221A70FB785A01B0
:1029C0003B69134403F5A0635B68FA7851013A69E7
:1029D0000A4402F5A06223F480335360FB785A0165
:1029E0003B69134403F5A063DB68FA7851013A6947
:1029F0000A4402F5A06243F02003D360FB785A0139
:102A00003B69134403F5A0631A461023936000E06A
:102A100000BF1837BD4680BD80B586B000AF786076
:102A20000B46FB707B681B687B617B693B617B6845
:102A30001B68FA781146184602F0EFFE034603F0D1
:102A40000403042B1BD1FB785A013B69134403F5A3
:102A5000A0631A4604239360FA78796813461B0131
:102A60009B1A9B000B444D3307221A707B681B682E
:102A7000FA781146184603F07AFC00F089BC7B68AE
:102A80001B68FA781146184602F0C7FE034603F0A9
:102A90002003202B40F08280FB785A013B691344CD
:102AA00003F5A0631A4620239360FA7879681346E9
:102AB0001B019B1A9B000B4419331B78012B24D15B
:102AC000FA78796813461B019B1A9B000B44193353
:102AD00000221A70FA78796813461B019B1A9B0032
:102AE0000B444C3302221A70FA78796813461B01A2
:102AF0009B1A9B000B444D3303221A707B681B68A2
:102B0000FA781146184603F032FCFA7879681346D1
:102B10001B019B1A9B000B441A331B78012B40F0BE
:102B20003784FA78796813461B019B1A9B000B4483
:102B30001B331B78002B40F02B84FA7879681346FE
:102B40001B019B1A9B000B4426331B78012B09D0D9
:102B5000FA78796813461B019B1A9B000B441B33C0
:102B600001221A70FA78796813461B019B1A9B00A0
:102B70000B444D3303221A707B681B68FA781146A8
:102B8000184603F0F4FBFA78796813461B019B1A88
:102B90009B000B44443300221A60F9E37B681B68F6
:102BA000FA781146184602F038FE034603F4007323
:102BB000B3F5007F11D1FB785A013B69134403F54B
:102BC000A0631A464FF4007393607B681B68FA7821
:102BD0001146184603F0CBFBDAE37B681B68FA78F2
:102BE0001146184602F019FE034603F00103012BBB
:102BF00068D1FA78796813461B019B1A9B000B4435
:102C0000443300221A607B681B68FA781146184624
:102C100002F003FE034603F04003402B12D1FA7882
:102C2000796813461B019B1A9B000B441933012240
:102C30001A70FB785A013B69134403F5A0631A46E6
:102C400040239360FA78796813461B019B1A9B0016
:102C50000B441B331B78002B19D0FA787968134684
:102C60001B019B1A9B000B441B3300221A70FB783C
:102C70005A013B69134403F5A0635B68FA7851017C
:102C80003A690A4402F5A06223F480335360FB786A
:102C90005A013B69134403F5A0631A46012393606C
:102CA000FA78796813461B019B1A9B000B444D333D
:102CB00001221A707B681B68FA781146184603F0E7
:102CC00056FB65E37B681B68FA781146184602F0EC
:102CD000A4FD034603F04003402B39D1FA7879680C
:102CE00013461B019B1A9B000B444D3305221A709F
:102CF000FA78796813461B019B1A9B000B441A3320
:102D00001B78002B09D1FA78796813461B019B1AAE
:102D10009B000B44193301221A70FA787968134624
:102D20001B019B1A9B000B44443300221A607B68F2
:102D30001B68FA781146184603F019FBFB785A0114
:102D40003B69134403F5A0631A46402393601FE3D5
:102D50007B681B68FA781146184602F05EFD034650
:102D600003F00803082B1AD1FB785A013B6913447E
:102D700003F5A0631A4608239360FA78796813462E
:102D80001B019B1A9B000B444D3306221A707B6873
:102D90001B68FA781146184603F0E9FAF8E27B68F6
:102DA0001B68FA781146184602F037FD034603F017
:102DB0001003102B44D1FA78796813461B019B1A33
:102DC0009B000B44443300221A60FA78796813465A
:102DD0001B019B1A9B000B444D3304221A70FA7896
:102DE000796813461B019B1A9B000B4419331B780F
:102DF000002B14D1FA78796813461B019B1A9B00AB
:102E00000B4418331B78002B09D1FA7879681346E4
:102E10001B019B1A9B000B44193301221A707B681B
:102E20001B68FA781146184603F0A1FAFB785A019C
:102E30003B69134403F5A0631A4610239360A7E28D
:102E40007B681B68FA781146184602F0E6FC0346D8
:102E500003F08003802B40F083807B689B79002BFC
:102E600011D1FA78796813461B019B1A9B000B4419
:102E70004D3307221A707B681B68FA781146184692
:102E800003F075FA62E0FA78796813461B019B1A21
:102E90009B000B4444331B68591C786813461B0184
:102EA0009B1A9B00034444331960FA7879681346EF
:102EB0001B019B1A9B000B4444331B68022B22D935
:102EC000FA78796813461B019B1A9B000B44443324
:102ED00000221A60FA78796813461B019B1A9B003E
:102EE0000B444C3304221A70FA78796813461B019C
:102EF0009B1A9B000B444C331A78FB781946786870
:102F000008F002FF22E0FA78796813461B019B1A49
:102F10009B000B444C3302221A70FB785A013B6928
:102F2000134403F5A0631B68FB60FB6823F0804338
:102F3000FB60FB6843F00043FB60FB785A013B6990
:102F4000134403F5A0631A46FB681360FB785A012B
:102F50003B69134403F5A0631A468023936017E28C
:102F60007B681B68FA781146184602F056FC034647
:102F700003F48063B3F5806F1BD1FA787968134648
:102F80001B019B1A9B000B444D3309221A707B686E
:102F90001B68FA781146184603F0E9F9FB785A01E4
:102FA0003B69134403F5A0631A464FF480639360B2
:102FB000EEE17B681B68FA781146184602F02DFC9A
:102FC000034603F00203022B40F0DF81FB785A0135
:102FD0003B69134403F5A0631A4602239360FA7811
:102FE000796813461B019B1A9B000B444D331B78D9
:102FF000012B40F09380FA78796813461B019B1AE5
:103000009B000B444D3302221A70FA7879681346FC
:103010001B019B1A9B000B444C3301221A70FA7857
:10302000796813461B019B1A9B000B4426331B78BF
:10303000022B0BD0FA78796813461B019B1A9B0070
:103040000B4426331B78032B40F090817B689B79DF
:10305000002B15D1FA78796813461B019B1A9B0047
:103060000B443D331B78FA7883F00103D8B27968BA
:1030700013461B019B1A9B000B443D3302461A70FA
:103080007B689B79012B40F07181FA78796813464F
:103090001B019B1A9B000B4434331B68002B00F070
:1030A0006581FA78796813461B019B1A9B000B44D3
:1030B00034331968FA78786813461B019B1A9B0011
:1030C000034428331B880B44591EFA78786813464A
:1030D0001B019B1A9B00034428331B88B1FBF3F3AD
:1030E000BB60BB6803F00103002B00F03F81FA785E
:1030F000796813461B019B1A9B000B443D331B78D8
:10310000FA7883F00103D8B2796813461B019B1A41
:103110009B000B443D3302461A7027E1FA78796828
:1031200013461B019B1A9B000B444D331B78032B4A
:1031300020D1FA78796813461B019B1A9B000B4437
:103140004D3302221A70FA78796813461B019B1AD4
:103150009B000B441B331B78012B40F00781FA784E
:10316000796813461B019B1A9B000B444C330222C7
:103170001A70FBE0FA78796813461B019B1A9B00D2
:103180000B444D331B78042B3AD1FA7879681346F7
:103190001B019B1A9B000B444D3302221A70FA78D4
:1031A000796813461B019B1A9B000B444C33022287
:1031B0001A70FA78796813461B019B1A9B000B441E
:1031C0001B331B78012B40F0D180FA7879681346C5
:1031D0001B019B1A9B000B441B3300221A70FB78C7
:1031E0005A013B69134403F5A0635B68FA78510107
:1031F0003A690A4402F5A06223F480335360B5E0D3
:10320000FA78796813461B019B1A9B000B444D33D7
:103210001B78052B14D1FA78796813461B019B1A89
:103220009B000B444D3302221A70FA7879681346DA
:103230001B019B1A9B000B444C3302221A7095E031
:10324000FA78796813461B019B1A9B000B444D3397
:103250001B78062B14D1FA78796813461B019B1A48
:103260009B000B444D3302221A70FA78796813469A
:103270001B019B1A9B000B444C3305221A7075E00E
:10328000FA78796813461B019B1A9B000B444D3357
:103290001B78072B0AD0FA78796813461B019B1A12
:1032A0009B000B444D331B78092B70D1FA78796859
:1032B00013461B019B1A9B000B444D3302221A70CC
:1032C000FA78796813461B019B1A9B000B44443320
:1032D0001B68591C786813461B019B1A9B0003440A
:1032E00044331960FA78796813461B019B1A9B00D6
:1032F0000B4444331B68022B14D9FA7879681346BF
:103300001B019B1A9B000B44443300221A60FA787D
:10331000796813461B019B1A9B000B444C33042213
:103320001A7022E0FA78796813461B019B1A9B00F9
:103330000B444C3302221A70FB785A013B69134448
:1033400003F5A0631B68FB60FB6823F08043FB6010
:10335000FB6843F00043FB60FB785A013B69134470
:1033600003F5A0631A46FB68136000BFFA7879681A
:1033700013461B019B1A9B000B444C331A78FB78B5
:103380001946786808F0C0FC02E000BF00E000BF0A
:103390001837BD4680BD80B58AB000AF78607B68C5
:1033A0001B687B627B6A3B627B681B681B6AFB61F4
:1033B000FB6903F00F03BB61FB695B0C03F00F03B8
:1033C0007B61FB691B09C3F30A033B617B69022B29
:1033D00004D07B69052B00F0B680B7E03B69002B79
:1033E00000F0B3807968BA6913461B019B1A9B00F1
:1033F0000B442C331B68002B00F0A7807968BA6956
:1034000013461B019B1A9B000B4438331A683B6917
:10341000D1187868BA6913461B019B1A9B000344B4
:1034200034331B68994200F283807B68186879689E
:10343000BA6913461B019B1A9B000B442C331B6873
:103440003A6992B2194602F07DF97968BA69134671
:103450001B019B1A9B000B442C331A683B69D11843
:103460007868BA6913461B019B1A9B0003442C33EE
:1034700019607968BA6913461B019B1A9B000B44BB
:1034800038331A683B69D1187868BA6913461B014A
:103490009B1A9B00034438331960BB695A013B6A8D
:1034A000134403F5A0631B69DB0CC3F30903FB6042
:1034B0007968BA6913461B019B1A9B000B44283399
:1034C0001B881A463B6993423FD1FB68002B3CD0D6
:1034D000BB695A013B6A134403F5A0631B68BB60D8
:1034E000BB6823F08043BB60BB6843F00043BB6014
:1034F000BB695A013B6A134403F5A0631A46BB68D3
:1035000013607968BA6913461B019B1A9B000B4430
:103510003C331B7883F00103D8B27968BA6913464B
:103520001B019B1A9B000B443C3302461A700CE0B3
:103530007968BA6913461B019B1A9B000B444C33F4
:1035400004221A7001E000BF00E000BF00BF28376E
:10355000BD4680BD80B586B000AF78607B681B68D3
:103560007B617B693B613B6903F588631B68FB609A
:103570003B6903F588631B68BB60BB6823F02E03BF
:10358000BB60FB6803F00203022B0BD1FB6803F066
:103590000103012B02D1786808F09AFBBB6843F065
:1035A0000203BB60FB6803F00803082B32D1BB6841
:1035B00043F00803BB60FB6803F00403042B26D12F
:1035C0007B685B7A022B13D1FB6803F4C023B3F54D
:1035D000802F06D17B681B680221184602F048FA4A
:1035E00011E07B681B680121184602F041FA0AE0ED
:1035F0007B68DB79012B06D13B6903F580631A46B2
:103600004EF660235360786808F090FB02E078681B
:1036100008F09AFBFB6803F02003202B03D1BB6862
:1036200043F02003BB603B6903F588631A46BB681F
:10363000136000BF1837BD4680BD000080B584B060
:1036400000AF78607B68002B01D101232BE17B6800
:1036500093F83D30DBB2002B06D17B68002283F863
:103660003C207868FDF7B6F97B68242283F83D207A
:103670007B681B681A687B681B6822F001021A606D
:103680007B681B681A687B681B6842F400421A60FA
:103690007B681B681A687B681B6822F400421A600A
:1036A00001F020FAF8607B685B68814A934207D892
:1036B000FB68804A934294BF01230023DBB206E0FB
:1036C000FB687D4A934294BF01230023DBB2002BA9
:1036D00001D00123E7E0FB68784AA2FB03239B0C9F
:1036E000BB607B681B685B6823F03F017B681B68DD
:1036F000BA680A435A607B681B681B6A23F03F0163
:103700007B685B686A4A934202D8BB68013309E070
:10371000BB684FF4967202FB03F3694AA2FB0323D2
:103720009B0901337A6812680B4313627B681B683C
:10373000DB6923F44F4222F0FF027B685B685C493F
:103740008B4219D8FB68591E7B685B685B00B1FB34
:10375000F3F3591C40F6FC730B40002B0AD0FB68B6
:10376000591E7B685B685B00B1FBF3F30133C3F365
:103770000B0351E004234FE07B689B68002B11D1C1
:10378000FB68581E7B6859680B465B000B44B0FB16
:10379000F3F30133C3F30B03002B0CBF012300230E
:1037A000DBB212E0FB68581E7B6859680B469B0031
:1037B0000B4499000B44B0FBF3F30133C3F30B0349
:1037C000002B0CBF01230023DBB2002B01D001230F
:1037D00022E07B689B68002B0ED1FB68581E7B683B
:1037E00059680B465B000B44B0FBF3F30133C3F3A2
:1037F0000B0343F400430FE0FB68581E7B685968D5
:103800000B469B000B4499000B44B0FBF3F30133D0
:10381000C3F30B0343F44043796809681343CB6156
:103820007B681B681B6823F0C0017B68DA697B68D2
:103830001B6A1A437B681B680A431A607B681B6813
:103840009B6823F4034323F0FF037A6811697A68C5
:10385000D26811437A6812680B4393607B681B68D7
:10386000DB6823F0FF017B685A697B689B691A4318
:103870007B681B680A43DA607B681B681A687B6890
:103880001B6842F001021A607B6800221A647B68A0
:10389000202283F83D207B6800221A637B68002287
:1038A00083F83E20002318461037BD4680BD00BF78
:1038B000A08601007F841E00FF083D0083DE1B43BD
:1038C000D34D621080B588B000AF78607B68002B64
:1038D00001D1012328E17B6893F84130DBB2002B52
:1038E00009D17B68002283F840207B68904A5A63A4
:1038F0007868FDF7B7F87B68022283F841207B687F
:103900001B68DB697A68126823F47B6323F00F037A
:10391000D3617B681B6802221A627B685B69022B99
:1039200060D07B68DB68002B02D110237B6101E053
:1039300020237B617B689B68202B02D87B695B001E
:103940007B61012001F00AFAF8607B681B69B3F51E
:10395000007F25D17B68DB68002B10D07B699B0042
:10396000FA68B2FBF3F213469B0013445B001A465D
:103970007B685B69B2FBF3F305333B611FE07B6956
:10398000DB00FA68B2FBF3F213469B0013445B00C2
:103990001A467B685B69B2FBF3F305333B610EE0CB
:1039A000FA687B69B2FBF3F213469B0013445B0099
:1039B0001A467B685B69B2FBF3F305333B613B69F5
:1039C0005C4AA2FB0323DB083B613B6903F0010374
:1039D000BB613A69BB69D31A5B08FB61BB691B0217
:1039E000BB6103E00223FB610023BB61FB69012B88
:1039F00002D9FB69FF2B07D97B685B6C43F010028F
:103A00007B685A6401238FE07B681A69BB6942EACC
:103A100003017B681B68FA690A431A627B681B68AA
:103A2000DB6923F47B6323F00F037A6851687A68BB
:103A3000926811437A68D26811437A6892690A439E
:103A40001A437B681B6842F40062DA617B681B6A78
:103A5000012B61D17B68384A5A637B681B68374AFF
:103A6000934201D1364B01E04FF04023DB697A6885
:103A7000126832498A4201D1314A01E04FF04022B6
:103A800023F47B6323F00F03D3617B681B682B4A0D
:103A9000934201D12A4B01E04FF0402302221A62E7
:103AA0007B681B68254A934201D1254B01E04FF00A
:103AB0004023DB697B817B685B68B3F5007F03D0C3
:103AC0007B685B68002B03D14FF480733B6101E09E
:103AD00000233B613B699AB27B689B689BB21343AE
:103AE0009AB27B68DB689BB213439AB27B689B698E
:103AF0009BB213439AB27B8913439BB243F4006396
:103B00007B817B681B680D4A934201D10C4B01E01D
:103B10004FF040237A89DA617B6800225A647B681F
:103B2000012283F84120002318462037BD4680BD7E
:103B30003B3C0008CDCCCCCC513D000800380040C7
:103B40000034004080B483B000AF786000BF0C3711
:103B5000BD465DF8047B704780B483B000AF7860E9
:103B600000BF0C37BD465DF8047B704780B483B05E
:103B700000AF786000BF0C37BD465DF8047B70472E
:103B800080B582B000AF78607B685B6A1A887B681A
:103B90001B68DA607B685B6A9A1C7B685A627B6888
:103BA0005B8D9BB2013B9AB27B685A857B685B8DCB
:103BB0009BB2002B0ED17B681B685A687B681B6820
:103BC00022F0A0025A607B68012283F841207868C5
:103BD000FFF7B8FF00BF0837BD4680BD80B582B093
:103BE00000AF78607B681B68DA687B68DB6A92B23A
:103BF0001A807B68DB6A9A1C7B68DA627B685B8E62
:103C00009BB2013B9AB27B685A867B685B8E9BB203
:103C1000002B0ED17B681B685A687B681B6822F0FA
:103C200060025A607B68012283F841207868FFF7C0
:103C300093FF00BF0837BD4680BD80B586B000AF9A
:103C400078607B681B689B687B617B6893F8413078
:103C5000DBB2042B3AD17B6903F00103012B09D1BC
:103C60007B681B685B6803F04003402B02D17868D7
:103C7000FFF7B4FF7B6903F04003402B26D17B683C
:103C80001B685B6803F02003202B1FD17B681B6837
:103C90005A687B681B6822F060025A6000233B610F
:103CA0007B681B68DB683B617B681B689B683B61CA
:103CB0003B697B68012283F841207B685B6C43F0A1
:103CC00002027B685A647868FFF750FF7B6893F8BC
:103CD0004130DBB2032B36D17B6903F00203022BA8
:103CE00009D17B681B685B6803F08003802B02D1DD
:103CF0007868FFF745FF7B6903F00803082B22D1A2
:103D00007B681B685B6803F02003202B1BD17B685A
:103D10001B685A687B681B6822F0A0025A60002367
:103D2000FB607B681B689B68FB60FB687B6801220B
:103D300083F841207B685B6C43F004027B685A6423
:103D40007868FFF713FF00BF1837BD4680BD00003D
:103D500080B588B000AF78607B681B689B68FB61AA
:103D60007B681B68924A934201D1924B01E04FF06D
:103D700040239B68BB617B681B685B687B617B68D9
:103D80001B688B4A934201D18A4B01E04FF04023DC
:103D90005B683B617B685B68B3F5007F04D07B6840
:103DA0005B68002B40F09980FB6903F00203022B53
:103DB00007D17B6903F08003002B02D0786800F004
:103DC00025F9BB6903F00103012B07D13B6903F01F
:103DD0004003002B02D0786800F0C8F9BB6903F0FB
:103DE0004003402B3AD13B6903F02003002B35D030
:103DF0007B681B686E4A934201D16E4B01E04FF025
:103E000040235A687B681B6869498B4201D1694B22
:103E100001E04FF0402322F060025A607B681B688B
:103E20005A687B681B6822F0A0025A600023FB607E
:103E30007B681B68DB68FB607B681B689B68FB60BA
:103E4000FB687B68012283F841207B685B6C43F050
:103E500002027B685A647868FFF788FEFB6903F00A
:103E60000803082B40F0C3807B6903F02003002B7C
:103E700000F0BD807B681B685A687B681B6822F075
:103E8000A0025A607B681B68494A934201D1494BA2
:103E900001E04FF040235A687B681B6844498B421D
:103EA00001D1444B01E04FF0402322F060025A6000
:103EB0000023BB607B681B689B68BB60BB687B683A
:103EC000012283F841207B685B6C43F004027B682D
:103ED0005A647868FFF74AFE89E0BB6903F0020381
:103EE000022B07D13B6903F08003002B02D07868D6
:103EF00000F0BEF8FB6903F00103012B07D17B69D9
:103F000003F04003002B02D0786800F0FDF8FB6955
:103F100003F04003402B2FD17B6903F02003002BDB
:103F20002AD07B681B685A687B681B6822F0600295
:103F30005A607B681B681E4A934201D11D4B01E009
:103F40004FF040235A687B681B6819498B4201D1A6
:103F5000184B01E04FF0402322F0A0025A607B682A
:103F6000012283F841207B685B6C43F002027B688E
:103F70005A647868FFF7FAFDBB6903F00803082B61
:103F800036D13B6903F02003002B31D07B681B68DE
:103F9000074A934201D1074B01E04FF040235A6892
:103FA0007B681B6802498B4206D1024B06E000BFCA
:103FB00000380040003400404FF0402322F0A002BF
:103FC0005A607B681B685A687B681B6822F0600235
:103FD0005A607B68012283F841207B685B6C43F068
:103FE00004027B685A647868FFF7C0FD00E000BFF8
:103FF00000BF2037BD4680BD80B483B000AF78607D
:1040000000BF0C37BD465DF8047B704780B582B0B9
:1040100000AF78607B685B6A991C7A6851621A8885
:104020007B681B68DA607B685B8D9BB2013B9AB250
:104030007B685A857B685B8D9BB2002B13D17B68B4
:104040001B685A687B681B6822F0A0025A607B6874
:104050005B8E9BB2002B06D17B68012283F8412046
:104060007868FFF7C9FF00BF0837BD4680BD000074
:1040700080B582B000AF78607B685B6A991C7A6813
:10408000516219887B681B681D4A934201D11D4B00
:1040900001E04FF040230A46DA607B685B8D9BB2FB
:1040A000013B9AB27B685A857B685B8D9BB2002B83
:1040B00021D17B681B68124A934201D1114B01E068
:1040C0004FF040235A687B681B680D498B4201D131
:1040D0000C4B01E04FF0402322F0A0025A607B68B5
:1040E0005B8E9BB2002B06D17B68012283F84120B6
:1040F0007868FFF781FF00BF0837BD4680BD00BF6D
:10410000003800400034004080B582B000AF7860D5
:104110007B681B68D8687B68DB6A991C7A68D16207
:1041200082B21A807B685B8E9BB2013B9AB27B683D
:104130005A867B685B8E9BB2002B13D17B681B6811
:104140005A687B681B6822F060025A607B685B8D4E
:104150009BB2002B06D17B68012283F8412078684E
:10416000FFF74AFF00BF0837BD4680BD80B582B06B
:1041700000AF78607B681B68204A934201D1204BD6
:1041800001E04FF04023D8687B68DB6A991C7A68AD
:10419000D16282B21A807B685B8E9BB2013B9AB27D
:1041A0007B685A867B685B8E9BB2002B21D17B6833
:1041B0001B68124A934201D1114B01E04FF040239A
:1041C0005A687B681B680D498B4201D10C4B01E09A
:1041D0004FF0402322F060025A607B685B8D9BB2F7
:1041E000002B06D17B68012283F841207868FFF715
:1041F00003FF00BF0837BD4680BD00BF0038004048
:104200000034004080B586B000AF78607B68002B3A
:1042100001D1012367E27B681B6803F00103002BD7
:1042200075D0884B9B6803F00C03042B0CD0854B96
:104230009B6803F00C03082B12D1824B5B6803F4DC
:104240008003B3F5800F0BD17E4B1B6803F4003362
:10425000002B5BD07B685B68002B57D1012342E2C7
:104260007B685B68B3F5803F06D1764B1B68754A67
:1042700043F4803313601DE07B685B68B3F5A02FC7
:104280000CD1704B1B686F4A43F4802313606D4B55
:104290001B686C4A43F4803313600BE0694B1B6866
:1042A000684A23F480331360664B1B68654A23F425
:1042B000802313607B685B68002B13D0FCF7E6FD5E
:1042C000386108E0FCF7E2FD02463B69D31A642B33
:1042D00001D9032307E25B4B1B6803F40033002B77
:1042E000F0D014E0FCF7D2FD386108E0FCF7CEFD19
:1042F00002463B69D31A642B01D90323F3E1514BE6
:104300001B6803F40033002BF0D100E000BF7B6892
:104310001B6803F00203002B63D04A4B9B6803F039
:104320000C03002B0BD0474B9B6803F00C03082BAE
:104330001CD1444B5B6803F48003002B16D1414B26
:104340001B6803F00203002B05D07B68DB68012BA0
:1043500001D00123C7E13B4B1B6823F0F8027B68C7
:104360001B69DB00374913430B603AE07B68DB686D
:10437000002B20D0344B01221A60FCF787FD3861F6
:1043800008E0FCF783FD02463B69D31A022B01D9F2
:104390000323A8E12B4B1B6803F00203002BF0D092
:1043A000284B1B6823F0F8027B681B69DB0025495A
:1043B00013430B6015E0244B00221A60FCF766FDE6
:1043C000386108E0FCF762FD02463B69D31A022B14
:1043D00001D9032387E11B4B1B6803F00203002B69
:1043E000F0D17B681B6803F00803002B36D07B6894
:1043F0005B69002B16D0154B01221A60FCF746FDB5
:10440000386108E0FCF742FD02463B69D31A022BF3
:1044100001D9032367E10B4B5B6F03F00203002B11
:10442000F0D01BE0094B00221A60FCF72FFD386129
:104430000EE0FCF72BFD02463B69D31A022B07D98D
:10444000032350E10038024000004742800E4742FB
:10445000884B5B6F03F00203002BEAD17B681B687B
:1044600003F00403002B00F097800023FB75814BC1
:104470001B6C03F08053002B0FD10023BB607D4BDE
:104480001B6C7C4A43F0805313647A4B1B6C03F023
:104490008053BB60BB680123FB75774B1B6803F43B
:1044A0008073002B18D1744B1B68734A43F48073DC
:1044B0001360FCF7EBFC386108E0FCF7E7FC024610
:1044C0003B69D31A022B01D903230CE16A4B1B6809
:1044D00003F48073002BF0D07B689B68012B06D11E
:1044E000644B1B6F634A43F0010313671CE07B6856
:1044F0009B68052B0CD15F4B1B6F5E4A43F0040396
:1045000013675C4B1B6F5B4A43F0010313670BE0BF
:10451000584B1B6F574A23F001031367554B1B6F12
:10452000544A23F0040313677B689B68002B15D063
:10453000FCF7ACFC38610AE0FCF7A8FC02463B69DA
:10454000D31A41F28832934201D90323CBE0494B7D
:104550001B6F03F00203002BEED014E0FCF796FC77
:1045600038610AE0FCF792FC02463B69D31A41F23B
:104570008832934201D90323B5E03E4B1B6F03F011
:104580000203002BEED1FB7D012B05D1394B1B6CB7
:10459000384A23F0805313647B689B69002B00F03A
:1045A000A180344B9B6803F00C03082B5CD07B6824
:1045B0009B69022B41D1314B00221A60FCF766FC4B
:1045C000386108E0FCF762FC02463B69D31A022B13
:1045D00001D9032387E0274B1B6803F00073002BEE
:1045E000F0D17B68DA697B681B6A1A437B685B6A77
:1045F0009B011A437B689B6A5B08013B1B041A43BF
:104600007B68DB6A1B061B4913434B601B4B012273
:104610001A60FCF73BFC386108E0FCF737FC024607
:104620003B69D31A022B01D903235CE0114B1B68B1
:1046300003F00073002BF0D054E0104B00221A60FE
:10464000FCF724FC386108E0FCF720FC02463B69DB
:10465000D31A022B01D9032345E0064B1B6803F054
:104660000073002BF0D13DE07B689B69012B07D1E3
:10467000012338E0003802400070004060004742EB
:104680001B4B5B68FB607B689B69012B28D0FB6838
:1046900003F480027B68DB699A4221D1FB6803F056
:1046A0003F027B681B6A9A421AD1FA6847F6C073C8
:1046B00013407A68526A9201934211D1FB6803F465
:1046C00040327B689B6A5B08013B1B049A4207D11E
:1046D000FB6803F070627B68DB6A1B069A4201D0BC
:1046E000012300E0002318461837BD4680BD00BFF7
:1046F0000038024080B584B000AF786039607B68D4
:10470000002B01D10123CCE0684B1B6803F00703A9
:104710003A689A420CD9654B3A68D2B21A70634B28
:104720001B6803F007033A689A4201D00123B8E0FE
:104730007B681B6803F00203002B20D07B681B689A
:1047400003F00403002B05D0594B9B68584A43F4EF
:10475000E05393607B681B6803F00803002B05D0CF
:10476000534B9B68524A43F460439360504B9B68A1
:1047700023F0F0027B689B684D4913438B607B6894
:104780001B6803F00103002B44D07B685B68012B9E
:1047900007D1474B1B6803F40033002B19D10123C9
:1047A0007FE07B685B68022B03D07B685B68032B30
:1047B00007D13F4B1B6803F00073002B09D1012385
:1047C0006FE03B4B1B6803F00203002B01D1012378
:1047D00067E0374B9B6823F003027B685B683449D2
:1047E00013438B60FCF752FBF8600AE0FCF74EFBCA
:1047F0000246FB68D31A41F28832934201D903235F
:104800004FE02B4B9B6803F00C027B685B689B00BE
:104810009A42EBD1254B1B6803F007033A689A4292
:104820000CD2224B3A68D2B21A70204B1B6803F0AC
:1048300007033A689A4201D0012332E07B681B6883
:1048400003F00403002B08D0194B9B6823F4E052BB
:104850007B68DB68164913438B607B681B6803F039
:104860000803002B09D0124B9B6823F460427B683D
:104870001B69DB000E4913438B6000F021F80246F0
:104880000B4B9B681B0903F00F030A49CB5C22FA10
:1048900003F3094A1360094B1B681846FCF7AAF991
:1048A000002318461037BD4680BD00BF003C0240C3
:1048B000003802400CC50008000000200400002061
:1048C0002DE9B04F94B000AF00237B640023FB645C
:1048D00000233B640023BB64794B9B6803F00C030B
:1048E000082B0DD0082B00F2E180002B02D0042B06
:1048F00003D0DBE0734BBB64DBE0734BBB64D8E0FD
:104900006F4B5B6803F03F037B646D4B5B6803F4A4
:104910008003002B63D06A4B5B689B090022BB635A
:10492000FA63BB6BC3F308033B6300237B63D7E9E4
:104930000C4522462B464FF000004FF00001590174
:1049400041EAD261500102460B462146511A3961B3
:10495000294663EB01037B614FF000024FF0000337
:10496000D7E904AB59468B01514643EA916351465E
:104970008A015146B2EB0108594663EB01094FF039
:1049800000024FF000034FEAC90343EA58734FEAAD
:10499000C80290469946234618EB0303BB602B469A
:1049A00049EB0303FB604FF000024FF00003D7E92F
:1049B000024529464B02214643EAD15321464A0289
:1049C000104619467B6C0022BB62FA62D7E90A23C3
:1049D000FBF7FEFB02460B461346FB6458E0384BE0
:1049E0005B689B09002218461146C0F308033B622E
:1049F00000237B62D7E9088942464B464FF000000E
:104A00004FF00001590141EAD261500102460B46C4
:104A10004146B2EB010A494663EB010B4FF000023D
:104A20004FF000034FEA8B1343EA9A634FEA8A126E
:104A3000B2EB0A0463EB0B054FF000024FF00003EA
:104A4000EB0043EA5473E20014461D464346E31864
:104A50003B604B4645EB03037B604FF000024FF099
:104A60000003D7E9004529468B02214643EA9153CA
:104A700021468A02104619467B6C0022BB61FA610E
:104A8000D7E90623FBF7A4FB02460B461346FB645B
:104A90000B4B5B681B0C03F0030301335B003B64AF
:104AA000FA6C3B6CB2FBF3F3BB6402E0054BBB64F6
:104AB00000BFBB6C18465037BD46BDE8B08F00BF85
:104AC000003802400024F40000127A0080B400AFE5
:104AD000034B1B681846BD465DF8047B704700BF5A
:104AE0000000002080B500AFFFF7F0FF0246054B45
:104AF0009B689B0A03F007030349CB5C22FA03F38C
:104B0000184680BD003802401CC5000880B500AFC3
:104B1000FFF7DCFF0246054B9B685B0B03F00703C6
:104B20000349CB5C22FA03F3184680BD00380240EB
:104B30001CC5000880B483B000AF786039607B6822
:104B40000F221A60124B9B6803F003027B685A60C5
:104B50000F4B9B6803F0F0027B689A600C4B9B68DC
:104B600003F4E0527B68DA60094B9B68DB0803F4CE
:104B7000E0527B681A61074B1B6803F007023B6831
:104B80001A6000BF0C37BD465DF8047B704700BF5C
:104B900000380240003C024080B586B000AF78602B
:104BA00000237B6100233B617B681B6803F00103EA
:104BB000002B05D17B681B6803F00403002B35D064
:104BC000624B00221A60FCF761F9786108E0FCF79B
:104BD0005DF902467B69D31A022B01D90323B0E0A9
:104BE0005B4B1B6803F00063002BF0D17B685B68B4
:104BF0009A017B689B681B0755491343C1F88430B1
:104C0000524B01221A60FCF741F9786108E0FCF789
:104C10003DF902467B69D31A022B01D9032390E0A8
:104C20004B4B1B6803F00063002BF0D07B681B68C4
:104C300003F00203002B00F083800023FB60444B51
:104C40001B6C434A43F080531364414B1B6C03F0CD
:104C50008053FB60FB683F4B1B683E4A43F4807304
:104C60001360FCF713F9786108E0FCF70FF90246CE
:104C70007B69D31A022B01D9032362E0354B1B68F1
:104C800003F48073002BF0D0314B1B6F03F440739F
:104C90003B613B69002B2FD07B68DB6803F44073DA
:104CA0003A699A4228D02A4B1B6F23F440733B6128
:104CB000294B01221A60284B00221A60244A3B69C2
:104CC0001367234B1B6F03F00103012B14D1FCF777
:104CD000DDF878610AE0FCF7D9F802467B69D31A5F
:104CE00041F28832934201D903232AE0184B1B6F0B
:104CF00003F00203002BEED07B68DB6803F4407303
:104D0000B3F5407F0DD1124B9B6823F4F8127B68FA
:104D1000DB6823F0704323F440730D4913438B6029
:104D200005E00B4B9B680A4A23F4F8139360084B89
:104D30001A6F7B68DB68C3F30B03054913430B67EA
:104D4000002318461837BD4680BD00BF68004742A3
:104D50000038024000700040400E474280B487B0E7
:104D600000AF786000237B6100233B610023FB6080
:104D70000023BB607B68012B3FD1244B9B6803F46D
:104D80000003FB60FB68002B06D0FB68B3F5000F47
:104D90002FD11F4B7B612FE01C4B5B6803F480031A
:104DA000B3F5800F08D1194B5B6803F03F03194A34
:104DB000B2FBF3F33B6107E0144B5B6803F03F0386
:104DC000154AB2FBF3F33B61104BD3F884309B09D7
:104DD000C3F308023B6902FB03F3BB600B4BD3F840
:104DE00084301B0F03F00703BA68B2FBF3F37B6157
:104DF00002E000237B6100BF00E000BF7B69184632
:104E00001C37BD465DF8047B704700BF0038024088
:104E10000080BB0000127A000024F40080B582B04C
:104E200000AF78607B68002B01D101237BE07B68B9
:104E30005B6A002B08D17B685B68B3F5827F09D081
:104E40007B680022DA6105E07B6800221A617B68DA
:104E500000225A617B6800229A627B6893F8513085
:104E6000DBB2002B06D17B68002283F850207868E3
:104E7000FBF778FE7B68022283F851207B681B6871
:104E80001A687B681B6822F040021A607B685B68C6
:104E900003F482727B689B6803F404431A437B68C3
:104EA000DB6803F400631A437B681B6903F00203A9
:104EB0001A437B685B6903F001031A437B689B69B3
:104EC00003F400731A437B68DB6903F038031A4369
:104ED0007B681B6A03F0800342EA03017B689B6ADC
:104EE00003F400527B681B680A431A607B689B6965
:104EF0001B0C03F004017B685B6A03F010027B6803
:104F00001B680A435A607B681B68DA697B681B6808
:104F100022F40062DA617B6800225A657B68012214
:104F200083F85120002318460837BD4680BD80B560
:104F300082B000AF78607B68002B01D1012341E093
:104F40007B6893F83D30DBB2002B06D17B680022F2
:104F500083F83C20786800F039F87B68022283F8F7
:104F60003D207B681A687B6804331946104600F0C0
:104F7000BFF97B68012283F846207B68012283F811
:104F80003E207B68012283F83F207B68012283F862
:104F900040207B68012283F841207B68012283F84E
:104FA00042207B68012283F843207B68012283F83A
:104FB00044207B68012283F845207B68012283F826
:104FC0003D20002318460837BD4680BD80B483B01D
:104FD00000AF786000BF0C37BD465DF8047B7047BA
:104FE00080B485B000AF78607B6893F83D30DBB269
:104FF000012B01D001234EE07B68022283F83D2083
:105000007B681B68DA687B681B6842F00102DA6023
:105010007B681B68234A934222D07B681B68B3F1EC
:10502000804F1DD07B681B681F4A934218D07B6855
:105030001B681E4A934213D07B681B681C4A93422C
:105040000ED07B681B681B4A934209D07B681B68A3
:10505000194A934204D07B681B68184A934211D1C5
:105060007B681B689B6803F00703FB60FB68062BEB
:1050700010D07B681B681A687B681B6842F00102CD
:105080001A6007E07B681B681A687B681B6842F03F
:1050900001021A60002318461437BD465DF8047BF0
:1050A000704700BF000001400004004000080040BD
:1050B000000C004000040140004001400018004086
:1050C00080B584B000AF78607B681B68DB68FB60EC
:1050D0007B681B681B69BB60BB6803F00203002B85
:1050E00020D0FB6803F00203002B1BD07B681B68F9
:1050F0006FF002021A617B6801221A777B681B68D5
:105100009B6903F00303002B03D0786800F0D2F80A
:1051100005E0786800F0C4F8786800F0D5F87B689E
:1051200000221A77BB6803F00403002B20D0FB6831
:1051300003F00403002B1BD07B681B686FF0040294
:105140001A617B6802221A777B681B689B6903F4EB
:105150004073002B03D0786800F0ACF805E0786865
:1051600000F09EF8786800F0AFF87B6800221A77AC
:10517000BB6803F00803002B20D0FB6803F0080392
:10518000002B1BD07B681B686FF008021A617B68DC
:1051900004221A777B681B68DB6903F00303002B8A
:1051A00003D0786800F086F805E0786800F078F8B9
:1051B000786800F089F87B6800221A77BB6803F0F2
:1051C0001003002B20D0FB6803F01003002B1BD032
:1051D0007B681B686FF010021A617B6808221A77DF
:1051E0007B681B68DB6903F44073002B03D078688D
:1051F00000F060F805E0786800F052F8786800F098
:1052000063F87B6800221A77BB6803F00103002B68
:105210000CD0FB6803F00103002B07D07B681B68F0
:105220006FF001021A617868FBF790FBBB6803F02E
:105230008003002B0CD0FB6803F08003002B07D009
:105240007B681B686FF080021A61786800F000F9D3
:10525000BB6803F04003002B0CD0FB6803F0400355
:10526000002B07D07B681B686FF040021A617868DA
:1052700000F034F8BB6803F02003002B0CD0FB686F
:1052800003F02003002B07D07B681B686FF020021F
:105290001A61786800F0D2F800BF1037BD4680BDB3
:1052A00080B483B000AF786000BF0C37BD465DF8B6
:1052B000047B704780B483B000AF786000BF0C37C8
:1052C000BD465DF8047B704780B483B000AF786062
:1052D00000BF0C37BD465DF8047B704780B483B0D7
:1052E00000AF786000BF0C37BD465DF8047B7047A7
:1052F00080B485B000AF786039607B681B68FB6064
:105300007B68434A934213D07B68B3F1804F0FD040
:105310007B68404A93420BD07B683F4A934207D058
:105320007B683E4A934203D07B683D4A934208D152
:10533000FB6823F07003FB603B685B68FA6813430B
:10534000FB607B68324A93422BD07B68B3F1804F7D
:1053500027D07B682F4A934223D07B682E4A934202
:105360001FD07B682D4A93421BD07B682C4A934206
:1053700017D07B682B4A934213D07B682A4A93420A
:105380000FD07B68294A93420BD07B68284A93420E
:1053900007D07B68274A934203D07B68264A934212
:1053A00008D1FB6823F44073FB603B68DB68FA6854
:1053B0001343FB60FB6823F080023B685B69134387
:1053C000FB603B689A687B68DA623B681A687B68B6
:1053D0009A627B680E4A934203D07B68104A9342DC
:1053E00003D13B681A697B681A637B681B6843F0CA
:1053F00004027B681A607B6801225A617B68FA6844
:105400001A6000BF1437BD465DF8047B704700BFCB
:10541000000001400004004000080040000C004073
:1054200000040140004001400044014000480140A8
:1054300000180040001C00400020004080B483B0F1
:1054400000AF786000BF0C37BD465DF8047B704745
:1054500080B483B000AF786000BF0C37BD465DF804
:10546000047B704784B080B584B000AF786007F1EA
:105470001C0080E80E0097F82130012B23D17B68B7
:105480009B6B23F480327B689A637B68DB6823F430
:10549000840323F040037A68D3607B68DB6823F4DD
:1054A00040127B68DA6097F82830012B05D17B68C1
:1054B000DB6843F480127B68DA60786800F0DCF91E
:1054C0000346FB731BE07B68DB6843F040027B68AC
:1054D000DA60786800F0D0F90346FB7397F825305E
:1054E000002B06D17B689B6B43F480327B689A6308
:1054F00005E07B689B6B23F480327B689A63BB7FFB
:10550000012B0BD17B689B6843F006027B689A6095
:105510007B689B6843F020027B689A60FB7B18469F
:105520001037BD46BDE8804004B0704780B483B0FA
:1055300000AF78607B689B6843F001027B689A60EB
:10554000002318460C37BD465DF8047B704780B4D5
:1055500083B000AF78607B689B6823F001027B68B2
:105560009A60002318460C37BD465DF8047B7047EF
:1055700080B584B000AF78600B46FB700023FB6001
:105580007B68DB6823F0C0427B68DA60FB78012B24
:1055900015D17B68DB6843F000527B68DA600A2033
:1055A000FBF780FCFB680A33FB60786800F056F973
:1055B0000346012B1ED0FB68C72BF0D91AE0FB78FD
:1055C000002B15D17B68DB6843F080427B68DA6092
:1055D0000A20FBF767FCFB680A33FB60786800F081
:1055E0003DF90346002B05D0FB68C72BF0D901E03D
:1055F000012305E0FB68C82B01D1012300E0002353
:1056000018461037BD4680BD80B485B000AF7860C5
:1056100039600023FB60FB680133FB60FB68B3F17A
:10562000706F01D903231BE07B681B69002BF2DA42
:105630000023FB603B689B0143F020027B681A61FA
:10564000FB680133FB60FB68B3F1706F01D9032382
:1056500006E07B681B6903F02003202BF0D00023B9
:1056600018461437BD465DF8047B704780B485B09A
:1056700000AF78600023FB60FB680133FB60FB68D0
:10568000B3F1706F01D9032318E07B681B69002B0D
:10569000F2DA0023FB607B6810221A61FB68013399
:1056A000FB60FB68B3F1706F01D9032306E07B68F0
:1056B0001B6903F01003102BF0D000231846143799
:1056C000BD465DF8047B704780B489B000AFF860D8
:1056D000B96011461A460B46FB711346BB80FB6846
:1056E0007B61BB68FB6197F82830002B23D1BB8816
:1056F00003339B083B610023BB6118E0FB791A036D
:105700007B69134403F580531A46FB691B681360D9
:10571000FB690133FB61FB690133FB61FB69013309
:10572000FB61FB690133FB61BB690133BB61BA6992
:105730003B699A42E2D3002318462437BD465DF800
:10574000047B704780B48BB000AFF860B96013463B
:10575000FB80FB68BB61BB687B62FB889B089BB2DC
:105760007B61FB8803F00303FB8300233B6214E0AF
:10577000BB6903F580531A687B6A1A607B6A013340
:105780007B627B6A01337B627B6A01337B627B6A6B
:1057900001337B623B6A01333B623A6A7B699A421E
:1057A000E6D3FB8B002B1ED000233B62BB6903F5C5
:1057B00080531A4607F1100312681A603A693B6A6F
:1057C000DBB2DB0022FA03F3DAB27B6A1A703B6ABF
:1057D00001333B627B6A01337B62FB8B013BFB83C2
:1057E000FB8B002BEAD17B6A18462C37BD465DF84F
:1057F000047B704780B485B000AF78607B685B69DC
:10580000FB607B689B69FA681340FB60FB68184685
:105810001437BD465DF8047B704780B485B000AF97
:1058200078600B46FB707B68FB60FB785A01FB6875
:10583000134403F5A0639B68BB60FB785A01FB68C7
:10584000134403F5A063DB68BA681340BB60BB6810
:1058500018461437BD465DF8047B704780B483B0AA
:1058600000AF78607B685B6903F0010318460C3772
:10587000BD465DF8047B704780B485B000AF7860AA
:105880000023FB60FB680133FB60FB68B3F1706FC2
:1058900001D9032322E07B681B69002BF2DA0A237B
:1058A000FB6002E0FB68013BFB60FB68002BF9D169
:1058B0007B681B6943F001027B681A61FB68013356
:1058C000FB60FB68B3F1706F01D9032306E07B68CE
:1058D0001B6903F00103012BF0D000231846143795
:1058E000BD465DF8047B704784B080B586B000AFDC
:1058F000786007F1240080E80E000023FB757B68C8
:10590000FB60FB6803F560631A46002313607B6845
:105910009B6B43F400127B689A637B689B6B23F458
:1059200000227B689A637B689B6B23F480227B68F0
:105930009A637B68DB6803F04003002B19D197F86A
:105940002730012B0AD1FB6803F580631B68FA68D6
:1059500002F5806243F00403136014E0FB6803F572
:1059600080631B68FA6802F5806223F00403136009
:1059700009E0FB6803F580631B68FA6802F5806242
:1059800023F00403136010217868FFF73DFE0346FF
:10599000002B01D00123FB757868FFF767FE0346F3
:1059A000002B01D00123FB7500233B6115E03B690F
:1059B0005A01FB68134403F5A0631A464FF0FF3306
:1059C00093603B695A01FB68134403F5A0631A46D0
:1059D0000023D3603B6901333B6197F825301A46B9
:1059E0003B699342E3D37B6800229A617B684FF066
:1059F000FF325A617B68184A93420BD17B684FF49F
:105A000000725A627B68154A9A627B68144AC3F82E
:105A1000002109E07B6880225A627B68114A9A6201
:105A20007B68114AC3F8002197F82630002B05D176
:105A30007B689B6943F010027B689A617B689A6976
:105A40000A4B13437A689361FB7D18461837BD46AD
:105A5000BDE8804004B0704700000440000200012F
:105A60000003E00080006000E0004000080020A388
:105A700080B485B000AF78600B46FB707B68FB603C
:105A8000FB6803F580631B68FA6802F5806223F007
:105A900003031360FB6803F580631A68FB7803F067
:105AA0000303F96801F5806113430B60FB78012B58
:105AB00007D1FB6803F580631A464BF680335360C9
:105AC0000CE0FB78022B07D1FB6803F580631A46D4
:105AD00041F27073536001E0012300E00023184697
